:020000040800F2
:10000000700400204501000835120008350A000878
:10001000311200089906000855160008000000007B
:10002000000000000000000000000000591200085D
:100030009D06000800000000371200084513000864
:100040005F0100085F0100085F0100085F01000810
:100050005F0100085F010008E5060008410700088D
:100060005F0100085F0100085F0100085F010008F0
:100070005F0100085F0100085F0100085F010008E0
:100080005F0100085F0100085F0100085F010008D0
:100090005F0100085F0100085F0100085F010008C0
:1000A0005F0100085F0100085F0100085F010008B0
:1000B0005F010008A91300085F0100085F01000844
:1000C0005F0100085F0100085F0100085F01000890
:1000D0005F010008411500085F0100085F0100088A
:1000E0005F0100085F0100085F0100085F01000870
:1000F0005F0100085F0100085F0100085F01000860
:100100005F0100085F0100085F0100085F0100084F
:100110005F0100085F0100085F0100085F0100083F
:100120005F0100085F0100085F0100085F0100082F
:10013000DFF80CD000F08EFA00480047791600086E
:10014000700400200648804706480047FEE7FEE7A7
:10015000FEE7FEE7FEE7FEE7FEE7FEE7FEE7FEE777
:1001600049130008310100082DE9FE4F804681EA5D
:100170000300C00F0C46009021F0004123F0004521
:10018000B8EB0200A94105D24046214690461C46E4
:100190000B46024623F00040104347D0270DC7F31B
:1001A0000A00C3F30A510290401A019040286BDA0A
:1001B000C3F3130040F4801B0098924620B1002343
:1001C000D2EB030A63EB0B0B01985946C0F14002D6
:1001D000504600F089F906460D4650465946019AA8
:1001E00000F091F910EB08006141002487EA1152F8
:1001F00084EAE7731A4340D0009A62B3019A012A55
:100200004FEA075215DC001B61EB02014FF0004280
:1002100002EA0752CDE90042001C41F58011324646
:100220002B4600F0C8F903B0BDE8F08F40462146E8
:10023000F9E7001B61EB0201001C41F58013001877
:100240005B412018A2F5001747EB030140EAD57087
:10025000B6196D4111E06D084FEA360645EAC075E2
:100260004FEA0752001B61EB0201001C41F58011AF
:1002700049084FEA30000019514132462B4603B07D
:10028000BDE8F04F00F088B900980122400000233B
:10029000D0EB020263EBE073009821464FEAE07472
:1002A000B8EB000061EB0401E9E783F000435BE792
:1002B00081F0004158E72DE9FE4F81EA030404F084
:1002C000004421F0004100944FF0000B23F0004364
:1002D00050EA01045ED052EA03045BD0C3F30A542F
:1002E000C1F30A552C44A4F2F3340194A0FB025448
:1002F000C1F3130141F48011C3F3130343F48013DA
:1003000001FB024400FB034E840A970A44EA81542D
:1003100047EA8357A4FB076802958D0A05FB07850A
:100320004FEA932C04FB0C542705029D4FEA065814
:1003300047EA1637B5EB08056EEB070C870E920EF1
:1003400047EA811742EA8312A7FB0201B6EB0B01D1
:1003500064EB00042B0D43EA0C335E1844EB1C5095
:10036000DA465146E7FB0201C5F313044FEA0B33AB
:1003700043EA14534FEA0432019C43EA0603A4F112
:100380000C040294009CCDE900B400F014F903B011
:10039000BDE8F08F00200146F9E72DE9F04D81EA34
:1003A000030404F0004B21F0004514464FF0000A0E
:1003B00023F0004150EA050220D054EA01021DD08A
:1003C000C5F30A570246C5F31303C1F31300C1F383
:1003D0000A5640F4801543F48013A7EB0608101B5F
:1003E000D64608F2FD3873EB050002D308F1010888
:1003F00001E092185B41B8F1000F03DA00200146DA
:10040000BDE8F08D00204FF48011064684460EE0D2
:10041000171B73EB050705D3121B63EB050306439C
:100420004CEA010C49084FEA300092185B4150EA4F
:100430000107EDD152EA030012D082EA040083EAF8
:100440000501084305D0101BAB4106D20122002351
:1004500006E000224FF0004302E06FF0010253106B
:100460001AEB06004CEB085110EB0A0041EB0B01B4
:10047000BDE8F04D00F090B8C10F80EAE07008448C
:10048000CA079623002100F059B800F0004230F06E
:1004900000400AD0C10D01F56071C0F3160042EAB8
:1004A0000151C208400711437047002001467047C0
:1004B00001F0004330B421F0004150EA010206D0BF
:1004C0000A0DA2F56072C1F31301002A02DC30BCF0
:1004D00000207047440F44EAC104C100E01830BC5A
:1004E00000EBC25000F021B8202A04DB203A00FAC9
:1004F00002F1002070479140C2F1200320FA03F37B
:10050000194390407047202A06DBCB17203A41FA66
:1005100002F043EAE07306E041FA02F3D040C2F190
:10052000200291400843194670470029A8BF704730
:10053000401C490008BF20F00100704710B4B0FA19
:1005400080FC00FA0CF050EA010404BF10BC7047B4
:1005500049B1CCF1200421FA04F411FA0CF118BFCE
:10056000012121430843A3EB0C01CB1D4FEA00619D
:100570004FEA102042BF002010BC704700EBC35070
:1005800010440029A4BF10BC7047401C490008BF9C
:1005900020F0010010BC704710B5141E73F1000468
:1005A00008DA401C41F1000192185B411A4301D165
:1005B00020F0010010BD2DE9F04D92469B4611B18F
:1005C000B1FA81F202E0B0FA80F220329046FFF7F1
:1005D0008BFF04460F4640EA0A0041EA0B015346EE
:1005E0005A46084313D0114653EA010019D0C8F106
:1005F0004002504600F040F805460E465046594627
:100600004246FFF771FF084305D0012004E0204671
:100610003946BDE8F08D0020054346EAE0762C43DC
:1006200037430A986305E40AA0EB08000022FD0A9C
:1006300044EA47540A3002D500200146E9E70105A3
:1006400010196941DDE9084500196941BDE8F04D1F
:10065000A2E70000064C074D06E0E06840F0010309
:1006600094E8070098471034AC42F6D3FFF764FDD6
:10067000B04A0008D04A0008202A04DB203A21FAB8
:1006800002F00021704721FA02F3D040C2F12002AB
:10069000914008431946704700BFFEE7704700B518
:1006A000034603E04FF47A7000F005F8181EA3F13A
:1006B0000103F7D100BD00EBC001C9004FF0E022FB
:1006C0005161002191610521116100BF4FF0E021CE
:1006D000096901F480310029F8D004214FF0E022AB
:1006E0001161704710B5012000F05EF8012821D19A
:1006F0000121114800F006F9C8B94FF480510E48A5
:1007000000F000F9012806D10C480088401E00B214
:100710000A4908800BE04FF48051074800F0F2F8D6
:1007200028B906480088401C00B20449088001200E
:1007300000F034F810BD0000000C01400000002063
:1007400010B5022000F030F8012821D10221114813
:1007500000F0D8F8C8B94FF400510E4800F0D2F8B4
:10076000012806D10C480088401C00B20A490880C4
:100770000BE04FF40051074800F0C4F828B90648D0
:100780000088401E00B204490880022000F006F8EC
:1007900010BD0000000C014002000020014908606B
:1007A0007047000014040140014600200022074B5E
:1007B0001B6803EA0102054B14331B680B4013B19D
:1007C0000AB1012000E00020704700000004014051
:1007D000014611F1050F03DB052901DC00207047FC
:1007E00001F1FF0008B90020F9E70846F7E72DE915
:1007F000F0410246002500260020002300240027A7
:1008000091F803C00CF00F0591F803C00CF0100C28
:10081000BCF1000F03D091F802C04CEA050591F835
:1008200000C0BCF1000F31D0146800202BE04FF065
:10083000010C0CFA00F3B1F800C00CEA03069E426A
:1008400020D183004FF00F0C0CFA03F7BC4305FADC
:1008500003FC4CEA040491F803C0BCF1280F06D154
:100860004FF0010C0CFA00FCC2F814C00AE091F839
:1008700003C0BCF1480F05D14FF0010C0CFA00FC8D
:10088000C2F810C0401C0828D1D31460B1F800C0D1
:10089000BCF1FF0F34DD546800202EE000F1080C9D
:1008A0004FF0010808FA0CF3B1F800C00CEA030697
:1008B0009E4221D183004FF00F0C0CFA03F7BC438A
:1008C00005FA03FC4CEA040491F803C0BCF1280FBC
:1008D00005D100F1080C08FA0CF8C2F8148091F860
:1008E00003C0BCF1480F07D100F1080C4FF001081C
:1008F00008FA0CF8C2F81080401C0828CED35460C7
:10090000BDE8F0810246002093680B400BB1012046
:1009100000E00020704741617047016170470000AE
:1009200070B5002600245BE03148055D284600F0E4
:1009300071F83048007838B9A52D05D12D480078D8
:10094000401C2C49087040E02A48007801280BDB45
:10095000284800780E2807DC7019C6B225480078B0
:10096000401C2449087030E0224800780F2805D147
:1009700020480078401C1F49087026E01D48007878
:1009800010281FD15A2D1DD100201A490870A4F13A
:100990000F001749085A18490880A4F10D0014499E
:1009A000085816490860A4F109001149085814496B
:1009B0000860601F0E49085812490860012012495A
:1009C000087002E000200B4908700A4800780F49BF
:1009D0000978884203DD074800780C490870641CD8
:1009E0000B48007884429FDB00200949087070BDE5
:1009F00038000020080000203400002028000020DB
:100A00002C000020300000200C00002009000020F5
:100A10000B00002010B504462146054800F016FEE4
:100A200000BF8021024800F0D5FD0028F9D010BD9C
:100A30000038014000BFFEE721B1028842F4806225
:100A4000028004E002884FF6FF331A4002807047AC
:100A500070B502460024002500230020958A138BE0
:100A60001B0445EA030626F07F4404EA01068E4291
:100A700001D1012000E0002070BD21B1028842F4C4
:100A80008072028004E002884FF6FF631A40028001
:100A9000704721B1028842F40072028004E00288AB
:100AA0004FF6FF531A40028070470146088AC0B2D1
:100AB000704712B141F0010102E04FF6FE73194098
:100AC00001827047018270472DE9F04104460D46CE
:100AD00016461F462A2000F0A7FA611C88B200F0D3
:100AE00094FA711C88B200F090FA2B2000F09CFA66
:100AF00005F11A0188B200F088FA07F11A0188B2EC
:100B000000F083FA2C2000F08FFABDE8F08170B578
:100B100004460D4616462B46224629462046FFF738
:100B2000D3FF304600F071FA70BD2DE9F04706465C
:100B30000F4614461D46DDF820A0681E83B2601ED5
:100B400082B239463046FFF7BFFFB8460EE0B146E5
:100B500006E0504600F059FA09F101001FFA80F949
:100B6000A145F6DB08F101001FFA80F8A845EEDB8D
:100B7000BDE8F08708B50121082000F05DFB4FF4C7
:100B80004070ADF8000010208DF8030003208DF8B0
:100B9000020069461A48FFF72AFE4FF440711848D0
:100BA000FFF7BBFE0121102000F046FB4FF4E050A0
:100BB000ADF8000010208DF8030003208DF802002E
:100BC00069461048FFF713FE4FF4E0510D48FFF758
:100BD000A4FE0121202000F02FFB0420ADF800002E
:100BE00010208DF8030003208DF8020069460648A6
:100BF000FFF7FDFD04210448FFF78FFE08BD00004C
:100C0000000C0140001001400014014008B5FFF73E
:100C1000B1FF4FF400619548FFF77DFE6420FFF7B8
:100C20003EFD4FF400619148FFF777FE6420FFF727
:100C300036FD4FF480618D48FFF76DFE6420FFF7AD
:100C40002EFD112000F0F0F97820FFF728FDB120EB
:100C500000F0EAF9052000F0E1F93C2000F0DEF9AF
:100C60003C2000F0DBF9B22000F0DEF9052000F0B6
:100C7000D5F93C2000F0D2F93C2000F0CFF9B320A8
:100C800000F0D2F9052000F0C9F93C2000F0C6F9C7
:100C90003C2000F0C3F9052000F0C0F93C2000F032
:100CA000BDF93C2000F0BAF9B42000F0BDF90320F2
:100CB00000F0B4F9C02000F0B7F9AB2000F0AEF9B5
:100CC0000B2000F0ABF9042000F0A8F9C12000F0DF
:100CD000ABF9C52000F0A2F9C22000F0A5F90D2063
:100CE00000F09CF9002000F099F9C32000F09CF975
:100CF0008D2000F093F96A2000F090F9C42000F0F4
:100D000093F98D2000F08AF9EE2000F087F9C520D4
:100D100000F08AF90F2000F081F9E02000F084F95A
:100D2000072000F07BF90E2000F078F9082000F091
:100D300075F9072000F072F9102000F06FF9072014
:100D400000F06CF9022000F069F9072000F066F964
:100D5000092000F063F90F2000F060F9252000F071
:100D60005DF9362000F05AF9002000F057F908200C
:100D700000F054F9042000F051F9102000F04EF971
:100D8000E12000F051F90A2000F048F90D2000F0B0
:100D900045F9082000F042F9072000F03FF90F2044
:100DA00000F03CF9072000F039F9022000F036F994
:100DB000072000F033F9092000F030F90F2000F08F
:100DC0002DF9252000F02AF9352000F027F9002020
:100DD00000F024F9092000F021F9042000F01EF9A8
:100DE000102000F01BF9FC2000F01EF9802000F01C
:100DF00015F93A2000F018F9052000F00FF9362017
:100E000000F012F9782000F009F9212000F00CF927
:100E1000292000F009F92A2000F006F9002000F04E
:100E2000FDF81A2000F0FAF8002000F0F7F8692029
:100E300000F0F4F82B2000F0F7F8002000F0EEF8B6
:100E4000012000F0EBF8002000F0E8F8A02000F00E
:100E5000E5F82C2000F0E8F84FF6FF705023A022B0
:100E6000002100900846FFF760FE08BD0010014019
:100E70002DE9FF5F80468A4617469B460F9D00205E
:100E80000290CDF80080284605EBD071C1F34704ED
:100E90002046E21704EB5272D2102146E31704EB0E
:100EA0005373DB10A4EBC3030BB1012300E0002359
:100EB0001A446A4392B20192A7F12000C7B20AEB2A
:100EC0000500401E83B208EB0400401E82B251466A
:100ED0004046FFF7F9FD002669E00C2D07D107EB2E
:100EE0004700354901EB8000805D03901BE0102D29
:100EF00005D1324800EB0710805D039013E0182DF8
:100F000007D107EB47002E4901EB0010805D0390ED
:100F100009E0202D05D12B4800EB8710805D039060
:100F200001E0BDE8FF9F4FF000093AE01098C8B912
:100F3000012000FA09F00399084018B1584600F062
:100F400064F802E00E9800F060F80298401CC0B20D
:100F50000290029890FBF4F104FB1100E8B9002024
:100F6000029021E0012000FA09F00399084020B125
:100F70005A4651464046FFF7CAFD08F101001FFAE4
:100F800080F80098A8EB0000A04206D1DDF80080B0
:100F90000AF101001FFA80FA06E009F1010000F0F1
:100FA000FF09B9F1080FC1DB00BF701C86B20198C0
:100FB000864292DB00BFB4E7BC160008301B000875
:100FC00020210008F03200082DE9FE4F06460F46AA
:100FD00014469846DDE90D5ADDF8309010E0CDE971
:100FE000015ACDF800902278434639463046FFF743
:100FF0003FFF284605EBD07106EB61018EB2641C01
:1010000020780028EBD1BDE8FE8F10B504462012F1
:1010100000F01CF8E0B200F019F810BD10B504465D
:10102000204600F013F810BD10B504464FF480516F
:101030000548FFF770FC204600F008F84FF4805197
:101040000148FFF76AFC10BD0010014070B504466E
:1010500004211448FFF75FFC00251BE04FF480716A
:101060001148FFF758FC04F0800028B14FF40071DC
:101070000D48FFF752FC04E04FF400710A48FFF7F7
:101080004AFC4FF480710848FFF747FC6006040EE5
:10109000681CC5B2082DE1DB04210248FFF73DFCC6
:1010A00070BD000000140140000C014070B5044602
:1010B00001212148FFF7E1FC20491F4800F042F8D8
:1010C0000022D0211C48FFF7F4FC1D491A4800F00B
:1010D00039F821461848FFF7F5FC1949891C1648CC
:1010E00000F030F801211448FFF7C7FC13491248FB
:1010F00000F028F80122D0210F48FFF7DAFC0F4951
:10110000491C0D4800F01EF800210B48FFF794FC25
:1011100001210948FFF7BDFC08493F31064800F0AE
:1011200011F80548FFF7C1FC054601210248FFF709
:1011300083FC284670BD00000058004001000300F9
:101140008200070070B506460D4642F2107402E0B8
:10115000641E04B905E029460348FFF779FC01281D
:10116000F6D100BF70BD0000005800402DE9F05FCF
:1011700006460F4690469946DDE90AAB3B20FFF74D
:1011800095FF04463C20FFF791FF054645EA042001
:1011900000B230803D20FFF789FF04463E20FFF774
:1011A00085FF054645EA042000B238803F20FFF75E
:1011B0007DFF04464020FFF779FF054645EA0420FD
:1011C00000B2A8F800004320FFF770FF0446442057
:1011D000FFF76CFF0546A5F11C0141EA042108B2A6
:1011E000FFF7F6FAA9F800004520FFF75FFF044675
:1011F0004620FFF75BFF0546A5F1230141EA0421E4
:1012000008B2FFF7E5FAAAF800004720FFF74EFF03
:1012100004464820FFF74AFF054605F10F0141EA61
:10122000042108B2FFF7D4FAABF80000BDE8F09F44
:1012300000BFFEE77047704729B1064A9269024332
:10124000044B9A6104E0034A92698243014B9A611C
:101250007047000000100240704710B500F002F81F
:1012600010BD00000CB500200190009033480068CC
:1012700040F480303149086000BF3048006800F415
:10128000003000900198401C0190009818B9019816
:10129000B0F5A06FF1D12948006800F4003010B11A
:1012A0000120009001E0002000900098012843D127
:1012B0002348006840F01000214908600846006893
:1012C00020F0030008600846006840F00200086053
:1012D0001A4840681949486008464068486008460E
:1012E000406840F4806048600846406820F47C1004
:1012F00048600846406840F4E810486008460068C6
:1013000040F08070086000BF0C48006800F000707A
:101310000028F9D00948406820F0030007494860D8
:101320000846406840F00200486000BF034840683B
:1013300000F00C000828F9D10CBD0000001002409C
:10134000002002407047000010B51348006840F0CC
:1013500001001149086008464068104908400E49DC
:101360004860084600680E4908400B490860084676
:10137000006820F4802008600846406820F4FE00E1
:1013800048604FF41F008860FFF767FF4FF0006070
:101390000449086010BD0000001002400000FFF882
:1013A000FFFFF6FE08ED00E02DE9FF5F012149484F
:1013B00000F0B5F801287DD14748B0F90000474951
:1013C00008800020444908804548B0F9000045499C
:1013D000088000204249088043484449444B454A1C
:1013E000CDE9001044494548FFF7C0FE4048B0F938
:1013F0000000FFF741F80190FFF747F880464FF0F3
:1014000066323F4BFEF7C9FF3E4A3F4BCDE9020132
:10141000FEF751FF04460D463C480068FFF735F8DB
:10142000064622462B46FEF79FFE8246FFF740F80F
:10143000364908602C48B0F90000FFF71DF801900C
:10144000FFF723F880464FF066322D4BFEF7A5FFDD
:101450002C4A2D4BCDE90201FEF72DFF06460F4623
:101460002B480068FFF711F8824632463B46FEF7EC
:101470007BFE0446FFF71CF8254908601B48B0F9BD
:101480000000FEF7F9FF0190FEF7FFFF80464FF0E6
:1014900066321B4BFEF781FF06461A4A1A4BFEF7CF
:1014A0000AFF04460D461B480068FEF7EEFF224681
:1014B0002B4600E00CE0CDE90201FEF755FE824626
:1014C000FEF7F6FF134908600121024800F024F8F6
:1014D000BDE8FF9F00040040000000200400002041
:1014E000020000200600002026000020240000202A
:1014F00022000020200000201E0000201C000020F0
:10150000666630407B14AE47E17A943F10000020BD
:101510001800002014000020CA430282704730B532
:101520000246002000230024158A05EA010395895C
:1015300005EA010413B10CB1012000E0002030BD28
:1015400010B540F22441144800F051F8012809D1A7
:10155000114800F076F840210F4800F023F8FFF71B
:10156000DFF917E040F225510B4800F040F8012860
:1015700010D1094800F065F8C1B208480278007837
:10158000401C064B18700648815440F22551024811
:1015900000F011F810BD0000003801400B000020E1
:1015A0003800002001F40072B2F5007F00D100BFC6
:1015B000CA430280704710B50022002340F66A1427
:1015C000A14200D100BF0A1201249440A3B2DC431F
:1015D000048010BD02460020B1F5007F00D100BF9D
:1015E00013880B400BB1012000E00020704770B55C
:1015F0000246002400230025002040F66A16B1426E
:1016000000D100BFC1F3421501F01F03012606FA05
:1016100003F3012D02D19689334006E0022D02D159
:10162000168A334001E0968A33400C12012606FAEE
:1016300004F41688344013B10CB1012000E00020FE
:1016400070BD01468888C0F308007047C1F30802E6
:101650008280704700BFFEE702E008C8121F08C181
:10166000002AFAD170477047002001E001C1121F23
:10167000002AFBD1704700000EB5FFF7C7FA4FF6FE
:10168000FF705023A022002100900846FFF74DFA7A
:10169000002010214FF6FF720346CDE90021029091
:1016A00003A201460A20FFF78FFC00BFFEE70000FF
:1016B00068656C6C6F20776F726C640000000000CE
:1016C0000000000000000000000004040404040006
:1016D0000004000014140A000000000000000000D4
:1016E00000000A0A1F0A0A1F0A0A000000040E1559
:1016F00005060C14150E0400000012150D152E2CF5
:101700002A1200000000040A0A36151529160000E6
:1017100002020100000000000000000010080804A0
:101720000404040408081000020404080808080857
:101730000404020000000004150E0E150400000051
:1017400000000008083E080800000000000000003B
:10175000000000000202010000000000003F000045
:101760000000000000000000000000000002000077
:1017700000201010080804040202010000000E11ED
:1017800011111111110E00000000040604040404DC
:10179000040E000000000E1111080402011F0000D9
:1017A00000000E11100C1010110E00000000080CAB
:1017B0000C0A091F081C000000001F01010F111076
:1017C000110E000000000C12010D1311110E00008B
:1017D00000001E10080804040404000000000E119C
:1017E000110E1111110E000000000E11111916102A
:1017F00009060000000000000400000000040000D2
:1018000000000000000400000004040000001008B4
:101810000402020408100000000000003F003F0026
:10182000000000000000020408101008040200007C
:1018300000000E11110804040004000000001C2226
:10184000292D2D1D221C0000000004040C0A0A1E74
:101850001233000000000F12120E1212120F0000BD
:1018600000001E1101010101110E000000000F1205
:1018700012121212120F000000001F120A0E0A02AA
:10188000121F000000001F120A0E0A0202070000C9
:1018900000001C1201013911120C0000000033126B
:1018A000121E12121233000000001F04040404046C
:1018B000041F000000003E0808080808080809077F
:1018C000000037120A060A12123700000000070251
:1018D00002020202223F000000003B1B1B1B1515E9
:1018E0001535000000003B1216161A1A12170000D8
:1018F00000000E1111111111110E000000000F1245
:10190000120E02020207000000000E111111111741
:10191000190E180000000F12120E0A1212370000E2
:1019200000001E1101060810110F000000001F1515
:1019300004040404040E00000000331212121212F8
:10194000120C000000003312120A0A0C04040000FA
:101950000000151515150E0A0A0A000000001B0AE2
:101960000A04040A0A1B000000001B0A0A0A0404F5
:10197000040E000000001F0908040402121F0000EA
:101980001C0404040404040404041C0000020204F3
:1019900004040808081010000E08080808080808C1
:1019A00008080E00040A000000000000000000000B
:1019B00000000000000000000000003F02040000E2
:1019C000000000000000000000000000000C121CDD
:1019D000123C000000030202020E1212120E00005E
:1019E00000000000001C1202120C00000018101071
:1019F000101C1212123C000000000000000C121E0D
:101A0000021C000000182404041E0404041E00002C
:101A100000000000003C120C021C221C0003020209
:101A2000020E121212370000000404000006040423
:101A3000040E000000080800000C08080808080749
:101A400000030202021A0A060A1300000007040437
:101A500004040404041F000000000000000F15151A
:101A60001515000000000000000F121212370000D0
:101A700000000000000C1212120C00000000000018
:101A8000000F1212120E020700000000001C1212BA
:101A9000121C103800000000001B060202070000A4
:101AA00000000000001E020C101E000000000004D8
:101AB000041E0404041C000000000000001B12129D
:101AC000123C000000000000001B0A0A0404000091
:101AD000000000000015150E0A0A000000000000BA
:101AE000001B0A040A1B0000000000000033121251
:101AF0000C08040300000000001E0804041E00007F
:101B000018080808080C0808080818000808080839
:101B1000080808080808080806040404040804045F
:101B20000404060016090000000000000000000088
:101B300000000000000000000000000000000000A5
:101B4000000000080808080808080000181800002D
:101B500000486C241200000000000000000000009B
:101B60000000002424247F1212127F12121200009F
:101B70000000081C2A2A0A0C1828282A2A1C0808EF
:101B800000000022251515152A585454542200002F
:101B90000000000C1212120A76252911916E000025
:101BA0000006060403000000000000000000000022
:101BB00000402010100808080808081010204000F5
:101BC0000002040808101010101010080804020089
:101BD0000000000008086B1C1C6B080800000000D7
:101BE00000000000080808087F0808080800000036
:101BF00000000000000000000000000006060403D2
:101C00000000000000000000FE00000000000000D6
:101C100000000000000000000000000006060000B8
:101C20000000804040202010100808040402020038
:101C3000000000182442424242424242241800005E
:101C4000000000080E08080808080808083E000000
:101C50000000003C4242422020100804427E000066
:101C60000000003C4242201820404042221C00005C
:101C7000000000203028242422227E20207800002A
:101C80000000007E0202021A26404042221C000090
:101C9000000000382402021A2642424224180000A2
:101CA0000000007E22221010080808080808000022
:101CB0000000003C4242422418244242423C0000C0
:101CC000000000182442424264584040241C000096
:101CD00000000000000018180000000018180000A4
:101CE00000000000000000080000000000080804D8
:101CF00000000040201008040204081020400000EA
:101D00000000000000007F0000007F0000000000D5
:101D10000000000204081020402010080402000007
:101D20000000003C424246402010100018180000FD
:101D30000000001C225A555555552D42221C00000A
:101D40000000000808181414243C224242E7000056
:101D50000000001F2222221E22424242221F0000B7
:101D60000000007C4242010101010142221C0000EE
:101D70000000001F2242424242424242221F000013
:101D80000000003F4212121E12120242423F0000A7
:101D90000000003F4212121E12120202020700004F
:101DA0000000003C2222010101712122221C0000BE
:101DB000000000E7424242427E42424242E70000C7
:101DC0000000003E0808080808080808083E00004F
:101DD0000000007C10101010101010101010110FC7
:101DE0000000007722120A0E0A1212222277000047
:101DF000000000070202020202020202427F00000B
:101E000000000077363636362A2A2A2A2A6B000046
:101E1000000000E346464A4A5252526262470000BE
:101E20000000001C2241414141414141221C00006F
:101E30000000003F424242423E020202020700000E
:101E40000000001C2241414141414D53321C6000C1
:101E50000000003F4242423E1212222242C70000CE
:101E60000000007C4242020418204042423E000032
:101E70000000007F4908080808080808081C00003E
:101E8000000000E74242424242424242423C0000DD
:101E9000000000E74242222424141418080800001D
:101EA0000000006B4949494955553622222200005D
:101EB000000000E7422424181818242442E70000F8
:101EC000000000772222141408080808081C0000EB
:101ED0000000007E2120101008040442423F000050
:101EE00000780808080808080808080808087800A2
:101EF00000000202040408080810102020204040BE
:101F0000001E1010101010101010101010101E00D5
:101F10000038440000000000000000000000000045
:101F2000000000000000000000000000000000FFB2
:101F30000006080000000000000000000000000093
:101F4000000000000000003C4278444242FC0000D7
:101F5000000000030202021A26424242261A000032
:101F60000000000000000038440202024438000073
:101F700000000060404040784442424264D8000083
:101F8000000000000000003C427E0202423C0000D3
:101F9000000000F08808087E08080808083E0000D5
:101FA000000000000000007C22221C023C42423C57
:101FB000000000030202023A4642424242E70000A9
:101FC0000000000C0C00000E08080808083E000085
:101FD0000000003030000038202020202020221E69
:101FE0000000000302020272120A16122277000099
:101FF0000000000E0808080808080808083E00004D
:10200000000000000000007F9292929292B70000C0
:10201000000000000000003B4642424242E7000050
:10202000000000000000003C42424242423C0000EE
:10203000000000000000001B26424242221E020750
:10204000000000000000007844424242447840E032
:1020500000000000000000774C040404041F00008E
:10206000000000000000007C42023C40423E0000B4
:10207000000000000008083E0808080808300000BA
:1020800000000000000000634242424262DC0000A7
:1020900000000000000000E74224241408080000AB
:1020A00000000000000000EB4949555522220000C5
:1020B000000000000000007624181818246E0000AC
:1020C00000000000000000E742242414180808075C
:1020D000000000000000007E22100808447E00007E
:1020E00000C0202020202010202020202020C00000
:1020F00010101010101010101010101010101010E0
:10210000000608080808081008080808080806005B
:102110000C32C200000000000000000000000000BF
:1021200000000000000000000000000000000000AF
:10213000000000000000000000000000000000009F
:10214000000000000000000000000000000000008F
:1021500000000000000000006000600060006000FF
:1021600060006000600040002000200020000000AF
:10217000000000006000600060000000000000003F
:1021800000000000600660063003980188004400EB
:10219000000000000000000000000000000000003F
:1021A000000000000000000000000000000000002F
:1021B00000000000000000001002100210021002D7
:1021C000FE07FE0708020801080108010801FE07D2
:1021D000FE070401040104010401000000000000E6
:1021E00000000000000040004000F00158034C03D4
:1021F000CC034C0058007000E000C001C001400357
:102200004C035C034C034801F00040004000000018
:1022100000000000000000000E010A019100910082
:102220009100510051003A00AE03A0025004500446
:1022300048044804480484028403000000000000AD
:10224000000000000000000038006C006C006C0012
:102250006C006C002C0098071C011A01330133013B
:102260006301E300C308C6093C070000000000004A
:10227000000000000C001C0010001000080004000A
:10228000000000000000000000000000000000004E
:10229000000000000000000000000000000000003E
:1022A00000000000000400020001800080004000E7
:1022B00040002000200020002000200020002000FE
:1022C0004000400080008000000100020004000087
:1022D00000000000020004000800100010002000B0
:1022E000200040004000400040004000400040000E
:1022F0002000200010001000080004000200000070
:102300000000000000000000000000004000C000CD
:102310004000460C4E0FD001F0015E0F460C40000D
:10232000400040000000000000000000000000002D
:10233000000000000000000000000000000040005D
:102340004000400040004000FE0F400040004000C0
:1023500040004000000000000000000000000000FD
:10236000000000000000000000000000000000006D
:10237000000000000000000000000000000000005D
:10238000000000000C001C001000100008000400F9
:10239000000000000000000000000000000000003D
:1023A0000000000000000000FE0700000000000028
:1023B000000000000000000000000000000000001D
:1023C000000000000000000000000000000000000D
:1023D00000000000000000000000000000000000FD
:1023E000000000001C001C001C0000000000000099
:1023F00000000000000400060002000300010001CC
:10240000800080004000400060002000200010009C
:102410001000080008000C00040006000200000084
:1024200000000000000000000000F00098010C0314
:102430000C03060606060606060606060606060639
:1024400006060C030C039801F000000000000000D9
:102450000000000000000000000040007C00600060
:10246000600060006000600060006000600060006C
:102470006000600060006000FC03000000000000DD
:1024800000000000000000000000F80084010203CA
:1024900006030603000300018001C0006000200065
:1024A0001000080204020602FE0300000000000003
:1024B000000000000000000000007800C600860157
:1024C000860180018001C0007000800100010003CE
:1024D0000003060306038601F80000000000000068
:1024E0000000000000000000000080018001C00129
:1024F000A001A00190018801880184018201FE0FE2
:102500008001800180018001E007000000000000E0
:1025100000000000000000000000FC0304000400B4
:10252000040004000400F4008C0104030003000311
:102530000603060382018401F80000000000000089
:1025400000000000000000000000E00118030C0380
:102550000C0004000600E60116030E060606060639
:10256000060604060C021803F0000000000000003C
:1025700000000000000000000000F8070C06040244
:102580000401000100018000800040004000400084
:10259000600060006000600060000000000000005B
:1025A00000000000000000000000F8010C03060617
:1025B000060606060C021C03F000C8010C03060602
:1025C0000606060606060C03F001000000000000E7
:1025D00000000000000000000000F0000C010C03EF
:1025E000060206060606060606078C06780600069C
:1025F000000300030C018C017800000000000000C3
:1026000000000000000000000000000000000000CA
:1026100000000000E000E000E0000000000000001A
:1026200000000000E000E000E0000000000000000A
:10263000000000000000000000000000000000009A
:1026400000000000600060000000000000000000CA
:10265000000000000000600060004000200020003A
:1026600000000000000000000004000200018000E3
:1026700040002000100008000400080010002000A6
:102680004000800000010002000400000000000083
:10269000000000000000000000000000000000003A
:1026A00000000000FE07000000000000FE07000020
:1026B000000000000000000000000000000000001A
:1026C00000000000000000000400080010002000CE
:1026D00040008000000100020004000200018000B0
:1026E000400020001000080004000000000000006E
:1026F00000000000000000000000E0031806040CC9
:10270000040C0C0C0C0C0007800140004000400041
:1027100000000000E000E000E00000000000000019
:102720000000000000000000E00018030C02CC05CF
:1027300064056605A605B604B604B604B604B6027A
:10274000E4010C040C021803F0000000000000007B
:102750000000000000000000000060006000500069
:10276000D00090009000880088010801F80104035F
:1027700004030402020202060F0F00000000000022
:1027800000000000000000000000FE008C030C03AD
:102790000C030C030C038C01FC000C030C020C0654
:1027A0000C060C060C060C03FE01000000000000E5
:1027B00000000000000000000000E00318030C0609
:1027C0000C040404060006000600060006000600CD
:1027D00006040C040C021803F000000000000000C6
:1027E000000000000000000000007F008C010C03CE
:1027F0000C030C060C060C060C060C060C060C064C
:102800000C060C030C038C017F000000000000008C
:1028100000000000000000000000FF0306030604A3
:102820000604060086008600FE00860086008600FC
:102830000600060406040602FF0300000000000074
:1028400000000000000000000000FF030603060473
:102850000604060086008600FE00860086008600CC
:1028600006000600060006001F0000000000000031
:1028700000000000000000000000F00018010C0241
:102880000C0204020600060006000600C60F06033E
:1028900006030C030C031803F00000000000000006
:1028A000000000000000000000000F0F06060606F2
:1028B0000606060606060606FE07060606060606BF
:1028C00006060606060606060F0F000000000000BA
:1028D00000000000000000000000FC036000600039
:1028E00060006000600060006000600060006000E8
:1028F0006000600060006000FC0300000000000059
:1029000000000000000000000000F807C000C00048
:10291000C000C000C000C000C000C000C000C000B7
:10292000C000C000C000C000C000C60066003C007F
:1029300000000000000000000000CF038601C60078
:1029400046002600160036002E006E004600C60027
:1029500086008601060106038F07000000000000C4
:10296000000000000000000000001F00060006003C
:102970000600060006000600060006000600060027
:102980000600060406040602FF0300000000000023
:102990000000000000000000000007078603860317
:1029A0008E038E034E034E034A035A035A033A031F
:1029B00032033203320312038707000000000000D5
:1029C000000000000000000000008E0F0C021C023E
:1029D0001C0234023402640264024402C40284020F
:1029E00084038403040304031F02000000000000AA
:1029F00000000000000000000000F00098010C033F
:102A00000C02060606060606060606060606060664
:102A100006060C020C039801F00000000000000004
:102A200000000000000000000000FF000603060692
:102A300006060606060606068603FE0006000600D3
:102A400006000600060006001F000000000000004F
:102A500000000000000000000000F00098010C03DE
:102A60000C02060606060606060606060606060604
:102A700076064C02CC039801F000800700030000AA
:102A800000000000000000000000FF010603060631
:102A90000606060606060603FE004600C600860079
:102AA00086010603060306060F0E00000000000064
:102AB00000000000000000000000F8020C03060205
:102AC000060206000E003C00F800E0038003000749
:102AD0000206020606060C03F001000000000000DA
:102AE00000000000000000000000FE076204610812
:102AF00061086000600060006000600060006000CD
:102B00006000600060006000F8010000000000004C
:102B1000000000000000000000001E070C020C0274
:102B20000C020C020C020C020C020C020C020C0235
:102B30000C020C020C021801F00000000000000062
:102B4000000000000000000000000F070602040162
:102B500004010C010C0188008800980098005000C6
:102B60005000700030002000200000000000000035
:102B700000000000000000000000F70E62044204A4
:102B80004604460464026402E402E4029C029C01DE
:102B9000980198018801880088000000000000006A
:102BA000000000000000000000009E070C0108016A
:102BB00018019000B0006000200060006000D000AC
:102BC00090008801080104038E0700000000000047
:102BD000000000000000000000000F0F06040402C7
:102BE0000C0208011801B800B0007000600060001D
:102BF0006000600060006000F8010000000000005C
:102C000000000000000000000000FC070C020603AA
:102C100002018001800040004000200020001000E0
:102C2000180008040C040402FE0300000000000069
:102C300000000000E0032000200020002000200011
:102C40002000200020002000200020002000200084
:102C5000200020002000200020002000E0030000D1
:102C6000000000000000000004000400080008004C
:102C70001000100010002000200040004000C000A4
:102C80008000800000010001000200020002000438
:102C9000000000007C004000400040004000400078
:102CA0004000400040004000400040004000400024
:102CB0004000400040004000400040007C00000018
:102CC000000060009000080100000000000000000B
:102CD00000000000000000000000000000000000F4
:102CE00000000000000000000000000000000000E4
:102CF00000000000000000000000000000000000D4
:102D000000000000000000000000000000000000C3
:102D10000000000000000000000000000000FF0FA5
:102D2000000000001800600000000000000000002B
:102D30000000000000000000000000000000000093
:102D40000000000000000000000000000000000083
:102D50000000000000000000000000000000000073
:102D600000000000F0010C030C030003E0031C034F
:102D70000E03060306038E0B7C0E0000000000000D
:102D8000000000000000000008000E000C000C0015
:102D90000C000C00CC013C031C060C060C060C06B7
:102DA0000C060C060C021C03E401000000000000ED
:102DB0000000000000000000000000000000000013
:102DC00000000000F0008C018C0186010600060066
:102DD000060006020C020C01F000000000000000DA
:102DE00000000000000000000002C0030003000318
:102DF0000003000378038C030C0306030603060399
:102E00000603060304038C0778010000000000009D
:102E100000000000000000000000000000000000B2
:102E200000000000E001180308020C060C06FC0775
:102E30000C000C0018041802E00100000000000063
:102E400000000000000000000000C0036006300623
:102E500030003000FE013000300030003000300023
:102E60003000300030003000FC01000000000000A5
:102E70000000000000000000000000000000000052
:102E800000000000F007D8068C018C018C0198012D
:102E9000F8000C00FC00CC03060306038E03F800C8
:102EA000000000000000000008000E000C000C00F4
:102EB0000C000C00EC011C030C030C030C030C03B2
:102EC0000C030C030C030C039E0700000000000021
:102ED0000000000000000000000060006000000032
:102EE000000040007C006000600060006000600046
:102EF0006000600060006000FC0300000000000053
:102F000000000000000000000000C001C00100003F
:102F100000000001F001800180018001800180013A
:102F2000800180018001800180018001CC007C0053
:102F3000000000000000000008000E000C000C0063
:102F40000C000C008C038C008C004C006C005C00AE
:102F50008C008C010C010C039E0700000000000097
:102F6000000000000000000040007C0060006000E5
:102F70006000600060006000600060006000600051
:102F80006000600060006000FC03000000000000C2
:102F90000000000000000000000000000000000031
:102FA000000000003707EE0666066606660666063F
:102FB0006606660666066606FF0F00000000000053
:102FC0000000000000000000000000000000000001
:102FD00000000000EE011C030C030C030C030C03A7
:102FE0000C030C030C030C039E0700000000000000
:102FF00000000000000000000000000000000000D1
:1030000000000000F00098010C0306060606060604
:10301000060606060C030C03F0000000000000008A
:1030200000000000000000000000000000000000A0
:1030300000000000EE011C030C060C060C060C063A
:103040000C060C060C031C03EC010C000C003E00EB
:103050000000000000000000000000000000000070
:103060000000000078028C030C030603060306032D
:103070000603060304038C03780300030003C00760
:103080000000000000000000000000000000000040
:10309000000000009F0358063806180018001800AA
:1030A0001800180018001800FF00000000000000C1
:1030B0000000000000000000000000000000000010
:1030C00000000000F0031C030C020C023800F000AA
:1030D000C003040304038C03FC0100000000000093
:1030E00000000000000000000000000020002000A0
:1030F00030003000FE013000300030003000300081
:103100003000300030023002E0010000000000001A
:1031100000000000000000000000000000000000AF
:10312000000008028E030C030C030C030C030C03B9
:103130000C030C030C039C07780100000000000046
:10314000000000000000000000000000000000007F
:10315000000000001E070C02080108011801900081
:10316000B000B0006000600020000000000000001F
:10317000000000000000000000000000000000004F
:1031800000000000F70E6204460464026402EC02D0
:103190009C019801980198010800000000000000BF
:1031A000000000000000000000000000000000001F
:1031B00000000000BC0718011001B00060006000B2
:1031C000E0009000080108039E07000000000000D6
:1031D00000000000000000000000000000000000EF
:1031E000000000009E0708010801080190009000FF
:1031F000B0006000600060002000200024001C007F
:1032000000000000000000000000000000000000BE
:1032100000000000FC018401C400440060002000A4
:103220003000180208020C03FC010000000000003E
:10323000000000000003800080008000800080000B
:10324000800080008000400020004000800080005E
:10325000800080008000800080008000000300006B
:10326000400040004000400040004000400040005E
:10327000400040004000400040004000400040004E
:10328000400040004000400040004000400040003E
:10329000000000000C0010001000100010001000D2
:1032A000100010001000200040002000100010004E
:1032B0001000100010001000100010000C000000A2
:1032C00000001C002204C204800300000000000073
:1032D00000000000000000000000000000000000EE
:1032E00000000000000000000000000000000000DE
:1032F00000000000000000000000000000000000CE
:1033000000000000000000000000000000000000BD
:1033100000000000000000000000000000000000AD
:10332000000000000000000000000000000000009D
:1033300000000000000000000000C001C001C0014A
:10334000C001C001C001C001800080008000800079
:10335000800080008000000000000000000080016C
:10336000C003C00380010000000000000000000056
:10337000000000000000E01CE01CF01E700E38078A
:103380001803080184000000000000000000000095
:10339000000000000000000000000000000000002D
:1033A000000000000000000000000000000000001D
:1033B00000000000000000000000000020102010AD
:1033C000201020102010FE7FFE7F1008100810082B
:1033D0001008100810081008FE7FFE7F080408047B
:1033E00008040804080400000000000000000000B9
:1033F000000000000000000000010001C00760198B
:10340000103118311839183938017001E001C00342
:103410008007000F001D003900311C311C310C31B8
:103420000C11180DE0070001000100010000000070
:103430000000000000000000000000001C10361812
:103440006308630C63046304630263026301361D53
:103450009C37802280634063406320632063306335
:1034600010221836081C00000000000000000000B8
:10347000000000000000000000000000F0009801C3
:103480008C018C018C018C018C00CC007800183EE2
:103490001C083608320863046304C304C30383436F
:1034A00006438E26781C000000000000000000008B
:1034B0000000000000001C003C003C003000300018
:1034C00010000C00060000000000000000000000DA
:1034D00000000000000000000000000000000000EC
:1034E00000000000000000000000000000000000DC
:1034F0000000000000000040002000100008000C48
:103500000004000600030003000380018001800125
:10351000800180018001800180010003000300031D
:1035200000060006000C000800100020004000000B
:10353000000000000000020004000800100030003D
:1035400020006000C000C000C00080018001800138
:1035500080018001800180018001C000C000C000A6
:10356000600060003000100008000400020000004D
:10357000000000000000000000000000000000004B
:1035800000018003800300011C713C79783DC00775
:103590000001C007783D3C791C7100018003800365
:1035A000800100000000000000000000000000009A
:1035B000000000000000000000000000000000000B
:1035C00000000001000100010001000100010001F4
:1035D000FC7F000100010001000100010001000169
:1035E00000000000000000000000000000000000DB
:1035F00000000000000000000000000000000000CB
:1036000000000000000000000000000000000000BA
:1036100000000000000000000000000000000000AA
:103620001C003C003C003000300010000C00060084
:10363000000000000000000000000000000000008A
:10364000000000000000000000000000000000007A
:10365000FE7F0000000000000000000000000000ED
:10366000000000000000000000000000000000005A
:10367000000000000000000000000000000000004A
:10368000000000000000000000000000000000003A
:103690000000000000000000000000000000180012
:1036A0003C003C001800000000000000000000008A
:1036B000000000000000004000600020003000100A
:1036C00000180008000C00040006000200030001BE
:1036D00080018000C0004000600020003000100029
:1036E000180008000C0004000600020000000000A2
:1036F000000000000000000000000000C007600C97
:1037000030181830183018200C600C600C600C60F9
:103710000C600C600C600C600C60182018301830C5
:103720003018600CC007000000000000000000001E
:103730000000000000000000000000000001800107
:10374000F8018001800180018001800180018001F9
:103750008001800180018001800180018001800161
:103760008001C003F81F00000000000000000000FE
:10377000000000000000000000000000E007101C36
:103780000818043004300C300C30003000180008E9
:1037900000040002000180004000202010200820CA
:1037A0000430FC1FFC1F00000000000000000000AF
:1037B000000000000000000000000000E003180E00
:1037C0000C0C0C180C180C180018000C0006C00388
:1037D000000E00180010003000300C300C300C10BF
:1037E0000C18180CE00300000000000000000000AE
:1037F000000000000000000000000000000C000EAF
:10380000000E000F800E800E400E600E200E100E77
:10381000100E080E040E040EFE7F000E000E000EA9
:10382000000E000E000EC07F00000000000000002F
:10383000000000000000000000000000F03FF03F2A
:1038400010001000100008000800C807280C181805
:10385000081000300030003000300C300C300418FC
:103860000418080CF0030000000000000000000035
:10387000000000000000000000000000800FC010E9
:10388000203010301800180008000C008C0F6C1845
:103890003C301C600C600C600C600C6018601820E0
:1038A00030306018C0070000000000000000000079
:1038B000000000000000000000000000F83FF83F9A
:1038C0001C100C080408040400040002000200019B
:1038D00000010001800080008000C000C000C00026
:1038E000C000C000C0000000000000000000000098
:1038F000000000000000000000000000E007300CA5
:1039000018180C300C300C301C3038187008E007D8
:10391000B007180E0C1C063806300630063006308C
:103920000C18180CE003000000000000000000006C
:10393000000000000000000000000000E003180488
:103940000C080C1806100630063006300630063813
:103950000C3C1836F03100300018001800180C0C20
:103960000C060C03F0010000000000000000000045
:103970000000000000000000000000000000000047
:10398000000000000000000000008001C003C00330
:103990008001000000000000000000000000800125
:1039A000C003C00380010000000000000000000010
:1039B0000000000000000000000000000000000007
:1039C00000000000000000000000C000C000000077
:1039D00000000000000000000000000000000000E7
:1039E0000000C000C00080008000400040000000D7
:1039F000000000000000000000000020001000088F
:103A00000004000600038001C000600030001800C0
:103A10000C00180030006000C000800100030006A8
:103A2000000400080010002000000000000000005A
:103A30000000000000000000000000000000000086
:103A400000000000000000000000FE7F00000000F9
:103A5000000000000000FE7F0000000000000000E9
:103A60000000000000000000000000000000000056
:103A7000000000000000000000000400080010002A
:103A800020006000C000800100030006000C001848
:103A900000300018000C000600038001C000600028
:103AA00020001000080004000000000000000000DA
:103AB00000000000000000000000C00730180830BF
:103AC00008600C601C601C601C600030001C00065C
:103AD0000001800080008000800000000000800164
:103AE000C003C003800100000000000000000000CF
:103AF000000000000000000000000000C007601887
:103B0000103018200C2F8C4D864CC64CC64C664C81
:103B100066446644662666266615CC1C0C40082062
:103B200018303018C007000000000000000000003E
:103B3000000000000000000000000001C001C00102
:103B4000C00140016003200320032003300610065B
:103B500010061006F80F080C080C080C0C0C0418C2
:103B6000041806181F7C0000000000000000000080
:103B7000000000000000000000000000FE07181C0C
:103B8000183818301830183018301818180CF80772
:103B9000181818301820186018601860186018601D
:103BA00018301818FE0F0000000000000000000090
:103BB000000000000000000000000000C027603886
:103BC000103018200C400C400400060006000600CF
:103BD000060006000600060006000C400C400C2003
:103BE00018303018C007000000000000000000007E
:103BF000000000000000000000000000FE03180E9E
:103C000018181830183018301860186018601860CC
:103C10001860186018601860186018301830181094
:103C20001818180EFE03000000000000000000003D
:103C3000000000000000000000000000FE3F1830FF
:103C4000182018601840180018081808180CF80FE9
:103C5000180C180818081800180018001840184008
:103C600018201830FE3F0000000000000000000097
:103C7000000000000000000000000000FE7F18703F
:103C8000184018C018801800181018101818F81FBD
:103C9000181818101810180018001800180018002C
:103CA000180018007E000000000000000000000066
:103CB000000000000000000000000000C013701CA5
:103CC000101018100C200C2004000600060006003E
:103CD0000600060006FC063006300C300C301830AA
:103CE00018303008C007000000000000000000008D
:103CF0000000000000000000000000003F7E0C18E3
:103D00000C180C180C180C180C180C180C180C1893
:103D1000FC1F0C180C180C180C180C180C180C188C
:103D20000C180C183F7E000000000000000000008E
:103D3000000000000000000000000000F81F8001EB
:103D4000800180018001800180018001800180016B
:103D5000800180018001800180018001800180015B
:103D600080018001F81F000000000000000000003A
:103D7000000000000000000000000000E07F0006DE
:103D80000006000600060006000600060006000603
:103D900000060006000600060006000600060006F3
:103DA00000060006000600060E060E038E01FC004B
:103DB0000000000000000000000000007E7C1818D9
:103DC0001808180418061802180198019801D8015B
:103DD000B803380318071806180E180C181C181802
:103DE000183018307EFC00000000000000000000C9
:103DF0000000000000000000000000007E0018002D
:103E000018001800180018001800180018001800F2
:103E10001800180018001800180018001840184062
:103E200018201830FE3F00000000000000000000D5
:103E30000000000000000000000000001FF81C3817
:103E40001C381C381C3C343434343434343674322A
:103E50006432643264326431C431C431C431C43038
:103E6000C43084309FFC000000000000000000000F
:103E70000000000000000000000000001F7C1C107B
:103E80003C103410341074106410E410C410C411C9
:103E900084118413041304170416041E041C041C48
:103EA000041C04181F18000000000000000000009F
:103EB000000000000000000000000000C003300C03
:103EC000181808100C300C3006600660066006609A
:103ED000066006600660066006600C200C30081064
:103EE0001818300CC00300000000000000000000A3
:103EF000000000000000000000000000FE0F181885
:103F00001830186018601860186018601830181899
:103F1000F80F1800180018001800180018001800F2
:103F2000180018007E0000000000000000000000E3
:103F3000000000000000000000000000C003300C82
:103F400018180C100C300C20066006600660066025
:103F500006600660066006600660E4612C331C3271
:103F60001816300EC007004C007C0038000000001E
:103F7000000000000000000000000000FE07181C08
:103F8000183818301830183018301818180CF8076E
:103F900098031803180718061806180E180C180CA2
:103FA000181C18187E7800000000000000000000B7
:103FB000000000000000000000000000E027303892
:103FC00018300C200C200C000C0018007800E003C6
:103FD000800F001E003800700060046004600860FC
:103FE00018303818C80F0000000000000000000062
:103FF000000000000000000000000000FC3F8C21D9
:1040000084618241824180018001800180018001C0
:104010008001800180018001800180018001800198
:1040200080018001E00700000000000000000000A7
:104030000000000000000000000000003F7C0C10A9
:104040000C100C100C100C100C100C100C100C1090
:104050000C100C100C100C100C100C100C100C1080
:1040600008083804E0030000000000000000000021
:104070000000000000000000000000003EF81820D2
:1040800018201820301030103010301060086008F0
:104090006008E00CC004C004C004800380038003F7
:1040A000800300010001000000000000000000008B
:1040B000000000000000000000000000DFF3866147
:1040C000862186218C210C218C238C138C138C133C
:1040D0004C1358125816580E380E380E380E300C35
:1040E0001004100410040000000000000000000094
:1040F0000000000000000000000000007E3E1808E4
:1041000038083004300470026002E001C001C001D0
:10411000800180034003400720062006100C100C8D
:10412000081808183E7C0000000000000000000095
:104130000000000000000000000000007E7C1C1059
:10414000181018083008300C700460046002C002B7
:10415000C002C001800180018001800180018001D6
:1041600080018001E0070000000000000000000066
:10417000000000000000000000000000F83F1818D8
:104180000818040C040E00060007000380038001D9
:10419000C001C000E000600070003000382018202E
:1041A0001C100C18FE1F00000000000000000000A2
:1041B000000000000000C03F400040004000400000
:1041C00040004000400040004000400040004000EF
:1041D00040004000400040004000400040004000DF
:1041E00040004000400040004000C03F0000000090
:1041F0000000000000000000000008001800180087
:10420000100030002000600060004000C00080000E
:104210008001800100010003000200060006000486
:10422000000C0008001800180010003000200000EA
:10423000000000000000FC03000200020002000277
:10424000000200020002000200020002000200025E
:10425000000200020002000200020002000200024E
:1042600000020002000200020002FC030000000045
:104270000000000000008007C006200810100000A9
:10428000000000000000000000000000000000002E
:10429000000000000000000000000000000000001E
:1042A000000000000000000000000000000000000E
:1042B00000000000000000000000000000000000FE
:1042C00000000000000000000000000000000000EE
:1042D00000000000000000000000000000000000DE
:1042E0000000000000000000000000000000FFFFD0
:1042F0000000000000007800C00000010000000085
:1043000000000000000000000000000000000000AD
:10431000000000000000000000000000000000009D
:10432000000000000000000000000000000000008D
:10433000000000000000000000000000000000007D
:1043400000000000000000000000F00318060C0C44
:104350000C0C000C800F700C1C0C0C0C060C060CCA
:10436000064C0C4FF8380000000000000000000070
:104370000000000000000000000010001E001800F7
:1043800018001800180018001800180FD818383036
:10439000386018601860186018601860186018207D
:1043A00038307818C8070000000000000000000046
:1043B00000000000000000000000000000000000FD
:1043C00000000000000000000000C007700C18187A
:1043D00018180C180C000C000C000C000C201820F5
:1043E00018103008C00700000000000000000000A6
:1043F000000000000000000000000010001E001877
:1044000000180018001800180018E01B301C1818BD
:1044100018180C180C180C180C180C180C18081874
:10442000181C307AE00900000000000000000000C5
:10443000000000000000000000000000000000007C
:1044400000000000000000000000C007300C181839
:1044500008100C300C30FC3F0C000C000C00182035
:1044600018107018C00700000000000000000000D5
:10447000000000000000000000000000003E80C3BB
:1044800080C0C0C0C000C000C000FC1FC000C00091
:10449000C000C000C000C000C000C000C000C0001C
:1044A000C000C000F80F0000000000000000000085
:1044B00000000000000000000000000000000000FC
:1044C00000000000000000000000C077306C1018F1
:1044D0001818181818181018300CF00718001800C1
:1044E000F00FF03F08700C600C600C603838E00F83
:1044F0000000000000000000000010001E00180076
:1045000018001800180018001800980FD818383034
:10451000183018301830183018301830183018305B
:10452000183018307EFC0000000000000000000081
:104530000000000000000000000000008003800375
:1045400080030000000000000001F80180018001EC
:104550008001800180018001800180018001800153
:1045600080018001F81F0000000000000000000032
:1045700000000000000000000000000000380038CB
:1045800000380000000000000010801F0018001814
:10459000001800180018001800180018001800185B
:1045A00000180018001800180018180C1806F0035E
:1045B0000000000000000000000010001E001800B5
:1045C00018001800180018001800183E180C1806DB
:1045D000180318019801D801380318071806180C99
:1045E000181C18187E7C000000000000000000006D
:1045F000000000000000000000000001F801800140
:1046000080018001800180018001800180018001A2
:104610008001800180018001800180018001800192
:1046200080018001F81F0000000000000000000071
:10463000000000000000000000000000000000007A
:1046400000000000000000000800EE1C9C338C31CC
:104650008C318C318C318C318C318C318C318C3172
:104660008C318C31DE7B0000000000000000000077
:10467000000000000000000000000000000000003A
:10468000000000000000000010001E0FD818383095
:1046900018301830183018301830183018301830DA
:1046A000183018307EFC0000000000000000000000
:1046B00000000000000000000000000000000000FA
:1046C00000000000000000000000C007701C103057
:1046D00018300C600C600C600C600C600C601830C2
:1046E00018303018C0070000000000000000000073
:1046F00000000000000000000000000000000000BA
:10470000000000000000000010009E0F5818383014
:104710001820186018601860186018601860183049
:1047200038307818980718001800180018007E0014
:104730000000000000000000000000000000000079
:1047400000000000000000000000C023303C1838CA
:1047500018300C300C300C300C300C300C30083071
:104760001838303CE033003000300030003000FCBE
:104770000000000000000000000000000000000039
:10478000000000000000000060007E3C6066606188
:10479000E000E00060006000600060006000600019
:1047A00060006000FE070000000000000000000044
:1047B00000000000000000000000000000000000F9
:1047C00000000000000000000000E0273038183032
:1047D000182018007000E003800F001C0430043023
:1047E0000C301C18EC0F000000000000000000005E
:1047F00000000000000000000000000000000000B9
:10480000800080008000C000E000FC1FC000C000ED
:10481000C000C000C000C000C000C000C000C02078
:10482000C0208011000F0000000000000000000008
:104830000000000000000000000000000000000078
:10484000000000000000000010201E3C183018304E
:104850001830183018301830183018301830183018
:10486000183830F4E01300000000000000000000E1
:104870000000000000000000000000000000000038
:10488000000000000000000000007E3C181818081E
:10489000380830043004700260026002E001C00198
:1048A000C001C00080000000000000000000000007
:1048B00000000000000000000000000000000000F8
:1048C00000000000000000000000DFF78E630C23F2
:1048D0008C238C239813981358165816700E700E4C
:1048E000700E200420040000000000000000000002
:1048F00000000000000000000000000000000000B8
:1049000000000000000000000000FC3E7008700481
:10491000E004C002C0018003800340076006200C51
:10492000100C18183E7E000000000000000000007F
:104930000000000000000000000000000000000077
:10494000000000000000000000007E7C181818081D
:1049500030083008300460046004C002C002C002A5
:104960008001800180018000800080004C003C00BC
:104970000000000000000000000000000000000037
:1049800000000000000000000000FC1F0C0C040EE2
:104990000406000380038001C000E0007020302086
:1049A00038301C18FC1F0000000000000000000050
:1049B00000000000000000300008000400040004B3
:1049C00000040004000400040004000400040002C9
:1049D000800100020004000400040004000400043C
:1049E000000400040004000400040008003000007B
:1049F00000010001000100010001000100010001AF
:104A0000000100010001000100010001000100019E
:104A1000000100010001000100010001000100018E
:104A2000000100010001000100010001000100017E
:104A30000000000000000C001000200020002000FA
:104A40002000200020002000200020002000400046
:104A500080014000200020002000200020002000D5
:104A60002000200020002000200010000C0000008A
:104A700000003800C400864002610022001C0000D3
:104A80000000000000000000000000000000000026
:104A90000000000000000000000000000000000016
:104AA0000000000000000000000000000000000006
:104AB000D04A000800000020380000005816000806
:104AC000084B000838000020380400006816000871
:104AD00000000000000000000000000000000000D6
:104AE00000000000000000000000000000000000C6
:104AF00000000000000000000000000000000000B6
:084B00000000000000000000AD
:0400000508000131BD
:00000001FF
